:020000040800F2
:10000000000002207D1000085D0600085F06000861
:10001000610600086306000865060008000000008D
:10002000000000000000000000000000670600085B
:1000300069060008000000006B0600086D06000855
:10004000CD100008CD100008CD100008CD1000081C
:10005000CD100008CD100008CD100008CD1000080C
:10006000CD100008CD100008CD100008CD100008FC
:10007000CD100008CD100008CD100008CD100008EC
:10008000CD100008CD100008CD100008CD100008DC
:10009000CD100008CD100008CD100008CD100008CC
:1000A000CD100008CD100008CD100008CD100008BC
:1000B000CD100008CD100008CD100008CD100008AC
:1000C000CD100008CD100008CD100008CD1000089C
:1000D000CD100008CD100008CD100008CD1000088C
:1000E000CD100008CD100008CD100008CD1000087C
:1000F000CD100008CD100008CD100008CD1000086C
:10010000CD100008CD100008CD100008CD1000085B
:10011000CD100008CD100008CD100008CD1000084B
:10012000CD100008CD100008CD100008CD1000083B
:10013000CD100008CD100008CD100008CD1000082B
:10014000CD100008CD100008CD100008CD1000081B
:10015000CD100008CD100008CD100008CD1000080B
:10016000CD100008CD100008CD100008CD100008FB
:10017000CD100008CD100008CD10000800000000D0
:08018000CD100008CD100008AD
:1001880010B5054C237833B9044B13B10448AFF3C9
:1001980000800123237010BD0C0000200000000027
:1001A8002811000808B5034B1BB103490348AFF3F6
:1001B800008008BD00000000100000202811000881
:1001C80053B94AB9002908BF00281CBF4FF0FF31B6
:1001D8004FF0FF3000F072B9ADF1080C6DE904CEB4
:1001E80000F006F8DDF804E0DDE9022304B070470A
:1001F8002DE9F047089E04468846002B4BD18A42D9
:10020800154667D9B2FA82F24AB1C2F1200701FA5B
:1002180002F320FA07F7954047EA030894404FEAAB
:10022800154E230CB8FBFEF71FFA85FC0EFB17884A
:1002380043EA084307FB0CF1994209D9EB1807F187
:10024800FF3080F01B81994240F21881023F2B4415
:100258005B1AA4B2B3FBFEF00EFB103344EA03446E
:1002680000FB0CFCA44509D92C1900F1FF3380F0E0
:100278000781A44540F2048102382C4440EA074033
:10028800A4EB0C0400271EB1D4400023C6E90043A8
:100298003946BDE8F0878B4209D9002E00F0EB8083
:1002A8000027C6E9000138463946BDE8F087B3FAA9
:1002B80083F7002F47D18B4202D3824200F2FA80A3
:1002C800841A61EB030301209846002EE0D0C6E9AA
:1002D8000048DDE702B9FFDEB2FA82F2002A40F0F8
:1002E8008F80491B4FEA154E1FFA85F80127B1FB8D
:1002F800FEFC230C0EFB1C1143EA014308FB0CF126
:10030800994207D9EB180CF1FF3002D2994200F25A
:10031800CD808446591AA3B2B1FBFEF00EFB10142F
:1003280043EA044408FB00F8A04507D92C1900F15A
:10033800FF3302D2A04500F2B6801846A4EB0804A9
:1003480040EA0C409FE7C7F1200CBB4022FA0CFEA4
:100358004EEA030E01FA07F420FA0CF521FA0CF321
:100368004FEA1E482543B3FBF8F92C0C08FB193358
:100378001FFA8EFA44EA034309FB0AF49C4202FA84
:1003880007F200FA07F10BD91EEB030309F1FF305E
:1003980080F087809C4240F28480A9F1020973446E
:1003A8001B1BADB2B3FBF8F008FB103345EA03445E
:1003B80000FB0AFAA24508D91EEB040400F1FF333A
:1003C8006BD2A24569D90238744440EA0940A0FBBF
:1003D8000289A4EB0A044C45C2464B4654D351D07B
:1003E800002E69D0B1EB0A0564EB030404FA0CFC97
:1003F800FD40FC404CEA0505C6E90054002747E7E4
:10040800C2F1200320FA03F7954001FA02F021FA1D
:1004180003F34FEA154E3843010CB3FBFEF71FFAFE
:1004280085F80EFB173341EA034107FB08F38B42BB
:1004380004FA02F407D9691807F1FF3C2FD28B425E
:100448002DD9023F2944CB1A81B2B3FBFEF00EFB33
:10045800103341EA034100FB08F38B4207D96918BE
:1004680000F1FF3C17D28B4215D902382944C91A2A
:1004780040EA07473BE73746304609E70746E7E6DD
:100488001846FBE64145ABD2B8EB020A69EB0E020F
:1004980001381346A4E76046E9E7184695E767463A
:1004A800D1E781467CE702382C4447E7ACF1020CDF
:1004B8002B442FE7384608E73746E9E6704700BF80
:1004C80070B58AB00024059406940794089409949A
:1004D8000194244B1A6B42F080021A631A6B02F0E3
:1004E80080020192019A02941A6B42F008021A6380
:1004F8001A6B02F008020292029A03941A6B42F0F5
:1005080001021A631A6B02F001020392039A04941F
:100518001A6B42F002021A631B6B03F00203049386
:10052800049B114E22464FF46041304600F054FAC5
:100538004FF4604305930123069307940225089519
:1005480005A9304600F064F94FF4807305930695C9
:1005580007940894099405A9044800F059F90AB0C9
:1005680070BD00BF00380240000C0240000002408D
:1005780030B595B03022002108A800F0C9FD00244C
:100588000394049405940694079401941D4B1A6CE3
:1005980042F080521A641B6C03F080530193019B54
:1005A8000294194B1A6842F480421A601B6803F4DB
:1005B80080430293029B0225089501230B93102385
:1005C8000C930E950F94082310937823119312958A
:1005D8000423139308A800F005FA0F230393049546
:1005E80005944FF4A05306934FF4805307930321C7
:1005F80003A800F08FFC22462146204600F0E8FBC5
:1006080015B030BD003802400070004008B500F059
:1006180077F8FFF7ADFFFFF753FFFEE782B0002141
:1006280000910B4B5A6C42F480425A645A6C02F4A3
:1006380080420092009A01911A6C42F080521A642A
:100648001B6C03F080530193019B02B0704700BFFD
:10065800003802407047FEE7FEE7FEE7FEE7704716
:100668007047704708B500F065F808BD0F49D1F824
:10067800883043F47003C1F888300D4B1A6842F093
:1006880001021A60002098601A6822F0847222F42D
:1006980080321A60074A5A601A6822F480221A6067
:1006A800D8604FF000638B60704700BF00ED00E03A
:1006B800003802401030002410B504460E4B18785C
:1006C8004FF47A73B3FBF0F30C4A1068B0FBF3F005
:1006D80000F088F868B90F2C01D901200AE000223F
:1006E80021464FF0FF3000F049F8034B5C600020D2
:1006F80000E0012010BD00BF040000200000002021
:1007080008B50B4B1A6842F400721A601A6842F472
:1007180080621A601A6842F480721A60032000F03E
:100728001BF80020FFF7C8FFFFF778FF002008BD7F
:10073800003C0240034A1168034B1B780B441360CA
:10074800704700BF2800002004000020014B1868F3
:10075800704700BF28000020074AD36823F4E063ED
:100768001B041B0C000200F4E060184340F0BF605B
:1007780040F40030D060704700ED00E030B4174B13
:10078800DB68C3F30223C3F10704042C28BF042445
:100798001D1D062D18D9033B4FF0FF3505FA04F44B
:1007A80021EA0401994005FA03F322EA03031943F5
:1007B80000280BDB0901C9B200F1604000F5614077
:1007C80080F8001330BC70470023E5E700F00F0005
:1007D8000901C9B2024B1954F4E700BF00ED00E06B
:1007E80014ED00E00138B0F1807F0AD2064B586062
:1007F800064AF02182F823100020986007221A6028
:1008080070470120704700BF10E000E000ED00E0F5
:1008180000230F2B00F2D780F0B583B039E0072210
:1008280000E00022AA403A430234674D45F82420EC
:10083800664A1468F24302EA04054F6817F4803FD9
:1008480001D046EA0405614C2560646802EA0405A3
:100858004F6817F4003F01D046EA04055B4C656019
:10086800A46802EA04054F6817F4801F01D046EA1D
:100878000405564CA560E46822404D6815F4001F35
:1008880001D046EA0402514CE26001330F2B00F21A
:10089800988001229A400C6804EA0206B242F4D118
:1008A8004C68651E012D03D9112C01D0122C12D1D0
:1008B80085685F000324BC4025EA0405CC68BC4079
:1008C8002C438460456825EA02054C68C4F300128D
:1008D8009A402A434260C4685F000322BA40D24368
:1008E80014408D68BD402543C5604C68022C01D07A
:1008F800122C13D1DD08083550F825E003F0070461
:100908004FEA840C0F2404FA0CF42EEA040E0C6946
:1009180004FA0CF444EA0E0440F825400468224026
:100928004C6804F00304BC40224302604A6812F099
:10093800805FAAD000220192254A546C44F4804476
:100948005464526C02F480420192019A9C08A51CDE
:100958001D4A52F8257003F0030295000F22AA40A1
:1009680027EA02071B4A90423FF45BAF02F5806218
:1009780090421AD002F58062904218D002F5806247
:10098800904216D002F58062904214D002F580623F
:10099800904212D002F58062904210D002F5806237
:1009A80090423FF43CAF08223CE701223AE702229A
:1009B80038E7032236E7042234E7052232E7062225
:1009C80030E703B0F0BD704700380140003C0140FB
:1009D800003802400000024012B9090481617047E2
:1009E80081617047002800F0E48170B582B0044648
:1009F800036813F0010F3BD0A74B9B6803F00C036F
:100A0800042B2CD0A44B9B6803F00C03082B21D09B
:100A18006368B3F5803F4FD0B3F5A02F52D09E4BFB
:100A28001A6822F480321A601A6822F480221A6046
:100A38006368002B50D0FFF789FE0546964B1B686C
:100A480013F4003F14D1FFF781FE401B6428F5D949
:100A58000320B3E1904B5B6813F4800FD8D08E4B22
:100A68001B6813F4003F03D06368002B00F0A381D8
:100A7800236813F0020F55D0874B9B6813F00C0FB7
:100A88003ED0854B9B6803F00C03082B33D0E368FA
:100A9800002B68D0814B01221A60FFF757FE0546EC
:100AA8007D4B1B6813F0020F54D1FFF74FFE401B1C
:100AB8000228F5D9032081E1774A136843F480338B
:100AC8001360B5E7744B1A6842F480221A601A68FA
:100AD80042F480321A60ABE7FFF738FE05466E4BEA
:100AE8001B6813F4003FC3D0FFF730FE401B642897
:100AF800F5D9032062E1684B5B6813F4800FC6D117
:100B0800654B1B6813F0020F04D0E368012B01D07A
:100B1800012053E1604A136823F0F803216943EA8E
:100B2800C1031360236813F0080F40D0636963B3EF
:100B38005B4B01221A60FFF709FE0546564B5B6FB7
:100B480013F0020F33D1FFF701FE401B0228F5D93D
:100B5800032033E1504A136823F0F803216943EA7C
:100B6800C1031360DEE74D4B00221A60FFF7EEFD6C
:100B78000546494B1B6813F0020FD3D0FFF7E6FD7B
:100B8800401B0228F5D9032018E1454B00221A60C2
:100B9800FFF7DCFD0546404B5B6F13F0020F06D0F4
:100BA800FFF7D4FD401B0228F5D9032006E123688E
:100BB80013F0040F79D0384B1B6C13F0805F33D1DE
:100BC80000230193344B1A6C42F080521A641B6C58
:100BD80003F080530193019B0125324B1B6813F4EA
:100BE800807F23D0A368012B34D0052B38D02A4B23
:100BF8001A6F22F001021A671A6F22F004021A67AC
:100C0800A368002B36D0FFF7A1FD0646224B1B6FC9
:100C180013F0020F48D1FFF799FD801B41F288338A
:100C28009842F3D90320C9E00025D6E71D4A136886
:100C380043F480731360FFF789FD0646194B1B6860
:100C480013F4807FCED1FFF781FD801B0228F5D9F0
:100C58000320B3E0104A136F43F001031367CFE793
:100C68000D4B1A6F42F004021A671A6F42F0010224
:100C78001A67C5E7FFF76AFD0646074B1B6F13F0B7
:100C8800020F11D0FFF762FD801B41F288339842B2
:100C9800F3D9032092E000BF003802400000474229
:100CA800800E474200700040EDB9A369002B00F0A8
:100CB8008480454A926802F00C02082A51D0022B1F
:100CC80017D0424B00221A60FFF740FD04463E4B06
:100CD8001B6813F0007F42D0FFF738FD001B022885
:100CE800F5D903206AE0384A136C23F08053136463
:100CF800DBE7364B00221A60FFF728FD0546324B2A
:100D08001B6813F0007F06D0FFF720FD401B022868
:100D1800F5D9032052E0E369226A1343626A43EA81
:100D28008213A26A5208013A43EA0243E26A43EA9A
:100D38000263254A5360254B01221A60FFF706FD1E
:100D48000446214B1B6813F0007F06D1FFF7FEFC19
:100D5800001B0228F5D9032030E000202EE00020F7
:100D68002CE0012B2CD0184B9B6803F48001E2691E
:100D7800914201D0012021E003F03F02216A8A421A
:100D880001D001201AE0616A47F6C0721A408A420F
:100D980001D0012012E003F44032A16A8A4201D056
:100DA80001200BE003F07063E26A93420AD001204D
:100DB80004E001207047012000E0002002B070BD6F
:100DC8000120FBE70020F9E70038024060004742B5
:100DD80070B588B00C46164608B300230293204D20
:100DE8002A6B42F004022A632A6B02F00402029280
:100DF800029A4FF40072039202220492032206928E
:100E08000593079303A91748FFF702FDAB6823F082
:100E1800784344EAC6041C43AC6008B070BD0023A4
:100E280001930F4D2A6B42F001022A632A6B02F0EC
:100E380001020192019A4FF48072039202220492F5
:100E4800032206920593079303A90748FFF7E0FCDE
:100E5800AB6823F0EC6334431C43AC60DDE700BFB0
:100E6800003802400008024000000240264B9B6800
:100E780003F00C03042B44D0082B01D023487047FF
:100E88002DE9F04B204B5A6802F03F025B6813F4DF
:100E9800800F13D01C4B5968C1F3881100231C48DC
:100EA800A1FB0001FFF78CF9174B5B68C3F3014303
:100EB80001335B00B0FBF3F0BDE8F08B124B5B68CD
:100EC800C3F388131E4600275C010025E41A65EB6E
:100ED8000705A90141EA9461A001001B61EB050126
:100EE800CB0043EA5073C400A01943EB07018B02FF
:100EF80043EA90538402204619460023FFF760F91D
:100F0800D2E70348704700BF003802400024F400CD
:100F180040787D01002800F09E8070B50446504B53
:100F28001B6803F00F038B4209D2CBB24C4A1370F3
:100F3800136803F00F038B4201D0012070BD2368B2
:100F480013F0020F17D013F0040F04D0454A93682A
:100F580043F4E0539360236813F0080F04D0414A28
:100F6800936843F4604393603E4A936823F0F00328
:100F7800A068034393600D46236813F0010F32D035
:100F88006368012B21D09A1E012A25D9354A126897
:100F980012F0020F61D033498A6822F0030213432A
:100FA8008B60FFF7D3FB06462E4B9B6803F00C03C0
:100FB8006268B3EB820F16D0FFF7C8FB801B41F2C3
:100FC80088339842F0D90320B8E7264A126812F409
:100FD800003FE0D10120B1E7224A126812F0007FF9
:100FE800D9D10120AAE71E4B1B6803F00F03AB42BF
:100FF80009D9EAB21A4B1A701B6803F00F03AB4207
:1010080001D001209AE7236813F0040F06D0154A8F
:10101800936823F4E053E1680B439360236813F06B
:10102800080F07D00F4A936823F46043216943EA05
:10103800C1039360FFF71AFF0A4B9B68C3F30313BE
:10104800094AD35CD840094B1860094B1868FFF768
:1010580033FB002072E70120704701206EE700BFD4
:10106800003C024000380240401100080000002007
:1010780008000020DFF834D0002103E00C4B5B5857
:10108800435004310B480C4B42189A42F6D30B4A92
:1010980002E0002342F8043B094B9A42F9D3FFF7D8
:1010A800E5FA00F011F8FFF7B1FA704700000220E6
:1010B80068110008000000200C0000200C0000202F
:1010C8002C000020FEE7000070B50D4E0D4CA41B4F
:1010D800A4100025A54209D10B4E0C4C00F020F8B5
:1010E800A41BA4100025A54205D170BD56F82530D3
:1010F80098470135EEE756F8253098470135F2E76D
:1011080060110008601100086011000864110008EF
:1011180002440346934200D1704703F8011BF9E7E4
:10112800F8B500BFF8BC08BC9E467047F8B500BFCC
:08113800F8BC08BC9E4670479C
:101140000000000000000000010203040607080977
:0811500000000000010203048D
:08115800A0F0FF7F0100000080
:04116000AD010008D5
:0411640089010008F5
:0C1168000024F400010000001000000052
:040000050800107D62
:00000001FF
